:020000040000fa
:08000000009004000000000064
:020000040000fa
:020000040001f9
:102000000f2221000e7f22000e0188000000000038
:102010000c000700203d29000100200011000700ee
:10202000000020000000e00002003200000002007a
:1020300000000000c4920200000000000040da002e
:102040000000fe004440a900002320000000e00042
:102050000300320010002000a00188004440a800c6
:102060000000060091018800800078000000eb006d
:1020700015003700e280400032a0b4009101ba00a0
:10208000e280400032a0b4009102ba00e280400039
:1020900032a0b4000002eb00472bde00f507b200cf
:1020a000602ce10004003a000059eb008301e900d4
:1020b000fdff3e00040037006128e100010032000e
:1020c0000082eb00040007001101ba000200e000ea
:1020d000e8ff3a00000006003159ba008301e90028
:1020e0000c0032002159ba008301e90008003200d7
:1020f0000400e00003003a00e280400032a0b40097
:10210000f5ff370011d9ba008301e900faff3a0060
:102110008100e800e180400032a0b4000000060029
:082120000000000000000000b7
:020000040000fa
:020000040001f9
:0457f00033ff000083
:020000040000fa
:020000040001f9
:0457f400c0ff0000f2
:020000040000fa
:020000040001f9
:0457f8004f890000d5
:020000040000fa
:020000040001f9
:0457fc00603f00000a
:020000040000fa
:020000040001f9
:102800000000fa00889fbe008a1f780091028000b5
:10281000ff3ffc000aceb3000a4078004260b700d8
:102820009102880008c0280009002000c2c6bf002d
:102830000a4060003040b300c2e6b7006d060700f2
:10284000002829007c060700220424008800780064
:102850000900780084070700302a2900760607005f
:10286000c2c6bf000a406000c2e6b7005b060700b0
:102870000000fe004f0578004f04be000080fa0003
:04288000000006004e
:020000040000fa
:04400000aeba000054
:020000040000fa
:044004000090000028
:020000040000fa
:020000040001f9
:102128001c910000ee900000ca9000002091000071
:1021380006000000ff09000001a100000185000061
:10214800559500003f75000008260000ff000000bc
:1021580015000000294000001901000009010000d5
:102168009100000085610000953f0000750800009f
:1021780026ff00000015000000290000401900009b
:10218800010900000181000000c0000024030000d4
:1021980041000000530000007800000078000000b3
:1021a80078000000780000002000000042000000d5
:1021b8006f0000006f000000740000006c00000059
:1021c8006f0000006100000064000000650000006e
:1021d800720000002e03000061000000750000007e
:1021e8007300000074000000720000006900000025
:1021f800610000006d00000069000000630000003d
:10220800720000006f0000007300000079000000f9
:102218007300000074000000650000006d000000fd
:10222800730000002000000041000000470000008b
:10223800040300000904000009020000290000004e
:102248000101000000c00000320900000400000085
:102258000002000003000000000000000921000047
:102268001101000000010000222e000000070000fc
:102278000581000003400000000100000705000080
:1022880001030000400000000100000012010000ee
:1022980000020000000000000040000025130000bc
:1022a800000000001402000001020000000100000c
:1022b800436f00006e66000069670000204400005c
:1022c800617400006120000069730000202a00008a
:1022d8006e6f0000742a000020700000726f00000a
:1022e80067720000616d00006d650000640d0000fc
:1022f8000a000000426f00006f7400006c6f00005d
:10230800616400006572000020690000732000000d
:102318002a6e00006f7400002a2000007265000019
:102328002d700000726f000067720000616d000080
:102338006d650000640d00000a0000004572000091
:10234800726f0000722000006e6f000020660000af
:102358006c61000073680000206100006674000072
:1023680065720000206300006f6e0000666900005f
:102378006720000064610000746100000d0a00001d
:1023880000520000657000006c6100006369000085
:102398006e670000206900006e7300007472000010
:1023a80075630000746900006f6e00002061000012
:1023b80074200000307800003020000077690000a9
:1023c80074680000206700006f7400006f20000030
:1023d800626f00006f7400006c6f000061640000a1
:1023e800657200000d0a00000055000073620000cd
:1023f800204400006574000061630000680d00005f
:102408000a0000000d0a00006175000073740000e6
:1024180072690000616d000069630000726f00005e
:102428007379000073740000656d0000732000006c
:10243800426f00006f7400006c6f00006164000060
:102448006572000020560000657200007369000084
:102458006f6e0000200000000d0a00000050000010
:102468006c6c0000206300006f6e0000666900005d
:102478006775000072650000640d00000a00000026
:1024880041700000706c000020490000443d0000cd
:1024980000200000526500007365000074200000f1
:1024a80041640000647200003d00000053680000b1
:1024b8006f720000746300007574000020640000ef
:1024c800657400006563000074650000640d000019
:1024d8000a0000005573000062200000496e0000e9
:1024e80069740000696100006c6900007365000090
:1024f800640d00000a0000000d0a0000656e00006f
:10250800616200006c650000426f00006f7400009b
:102518006c6f0000616400006572000028290000eb
:1025280020700000657200006d6100006e6500009b
:102538006e7400006c7900000d0a00000052000063
:1025480065730000657400000d0a000000000000bb
:102558005265000073440000657600000d0a000013
:1025680000450000280000002c000000290d000094
:102578000a0000000d0a00005b0000005d0000007a
:020000040000fa
:020000040001f9
:102884000000fa009ec0a900f00f20007024880008
:10289400502488002000200030258800a824ef0060
:1028a4008644a900f0092000802488006024880060
:1028b4008804a800012021004808de00c024880004
:1028c4009424a8009624ef00ac24ef009424a900db
:1028d4000001eb00010078000018eb000018eb0089
:1028e4000201e800e80f5100fbff3a00d00020008d
:1028f400502588008ac4bf000038a30005003200b8
:1029040082007800512488008ac4bf000038a300e4
:10291400fcff3a000071ef00f470ef00f570ef0077
:10292400f670ef0094a4a9000000eb00e30e210070
:10293400420e21008000780001b079000130790056
:102944000080e800e40f5000fbff3a0080202100e3
:102954007087880001007800f9f0b700d1878800fb
:102964000080fa00000006000000fa000001eb00fd
:102974008000eb0040072000d40507008284a900f2
:1029840000012000002488000080fa0000000600f6
:102994000000fa008284a80000012000502488006e
:1029a4000001eb008000eb0050072000c705070082
:1029b4000080fa00000006000000fa00aac4bf006c
:1029c4000018a30006003200528780009240900055
:1029d40000c8b30080cf500005003200aa24a9002b
:1029e40000082000502488000080fa00000006003f
:1029f400708780009040900040c8b30080cf5000a2
:102a0400f6ff3a006840400010419800aa24a9004b
:102a1400f3ff37000000fa0050878000104278006e
:102a24000481fb00510f2100914078008180fb005c
:102a3400f6d0bf004800dd0001007000800f510097
:102a440002003600004278000081fb0002005000c2
:102a5400f5f0b7004800de00f6f0b7000404e0002b
:102a6400110032008041eb000001eb000509210058
:102a7400210f2100914078008180fb00f3d0bf003a
:102a84004800dd000100700062d87a00f2f0b7005f
:102a94004800de00f3f0b7008341e8000201e800db
:102aa400834f5200f2ff3a00510f21009140780009
:102ab4008180fb00f6d0bf004800dd0001007000fb
:102ac4000e00320001c4b300408780000148780042
:102ad4004187800000092100900098005087800001
:102ae400104090000068a3001800320080c8b300b2
:102af400904098000080fa000000060001c4b30072
:102b0400408780000148780041878000000d210043
:102b14009000980040c8b30090409800710f2100c5
:102b2400914078008180fb00f8d0bf004800dd00b0
:102b3400010070000100320000000100f4f0a9005f
:102b44000080fa0000000600ecff370080ccb300e0
:102b5400904098000080fa0000000600e7ff37006c
:102b64000000fa008040eb0001007800e2f0b700ba
:102b74007087800011409800708780000020a200b8
:102b840011409800f450e20009003d00710f21004b
:102b9400914078008180fb00f8d0bf004800dd0040
:102ba400010070000100320000000100f4f0a900ef
:102bb4000080fa00000006000000fa00200e210048
:102bc40021c0b30090cf100011003200e4ff0700d1
:102bd400dc10e20003003200dc30ef000080fa0079
:102be4000000060001c4b30040878000014878005b
:102bf40041878000000d210090009800c0c8b300f8
:102c0400904098000080fa0000000600f5ff3700ad
:102c140080ff07000080fa0000000600f1ff370083
:102c24000000fa0001d1bf000080fb002110210048
:102c340091407800c808dd00808070000404200002
:102c4400f0032000808f500005003e000102780050
:102c5400e3d0bf005d003200e14f50005e0032005f
:102c64007287800012409000c820de00014070008e
:102c740010419800708780000448780011102100ea
:102c8400914078008180fb0002d1bf004800dd0044
:102c9400010070000400500001f1b7004800de009c
:102ca40002f1b70000092100008788000011ab0081
:102cb40024003a008001eb000400e00002003a0026
:102cc4000080fa000000060002878000e10f210066
:102cd400914078008180fb00ffd0bf004800dd00f8
:102ce400010070003059780002878800fef0b700b8
:102cf4004800de00fff0b7008301e800830f5200b4
:102d0400efff320002878000e10f2100914078003c
:102d14008180fb00ffd0bf004800dd00010070008f
:102d24003059780002878800fef0b7004800de00c2
:102d3400fff0b7008301e800830f5200e2ff3a007e
:102d4400dfff37008001eb000400e000dcff32000d
:102d540002878000e10f2100914078008180fb0010
:102d6400ffd0bf004800dd0001007000305978003a
:102d740002878800fef0b7004800de00fff0b700cd
:102d84008301e800830f5200cdff320002878000e8
:102d9400e10f2100914078008180fb00ffd0bf004b
:102da4004800dd0001007000305978000287880077
:102db400fef0b7004800de00fff0b7008301e80032
:102dc400830f5200e2ff3a00bdff370010c0b3008a
:102dd400e3f0b700a2ff370020c0b300e3f0b70070
:102de4009fff37000000fa00881f780094a4a90010
:102df40008c8b30000d1bf008840600010003a004a
:102e0400f450e2004600350001c4b300408780005e
:102e14000148780041878000000d2100900098004f
:102e2400c0c8b3009040980041c8b30070878000c8
:102e3400114098004f0478000080fa00000006005a
:102e4400f450e200fbff3500d0d0bf0088406000a2
:102e540033003200d6d0bf000080fb00720d210089
:102e6400124178004811dd000001710011102100a9
:102e7400914078008180fb0002d1bf004800dd0052
:102e840001007000800f510009003100610d210024
:102e9400914078008180fb00d7d0bf004800dd005e
:102ea4000100700001f1b7004800de0002f1b70034
:102eb4005bff070010c0b300e2f0b70001c4b30029
:102ec400408780000148780040878000020d21007f
:102ed400120098001840980050878000014878003c
:102ee400518780009200980040c8b3009040980039
:102ef40010002000e086880001092100708780000e
:102f04001100980081ccb3007087800011409800b4
:102f14004f0478000080fa0000000600c8ff370064
:102f240020c0b300e2f0b700708780000148780049
:102f340082ccb300708780001240980001c4b300b3
:102f44004087800001487800418780000009210003
:102f540090009800924098004f0478000080fa0096
:102f640000000600b6ff37000000fa00881f780052
:102f740070878000104090004600de00610460000d
:102f8400ee50aa00d0878000e80f500008003200fd
:102f9400200e210011c0b30090cf10000f003200aa
:102fa400effe07004f0478000080fa0000000600de
:102fb400d2d0bf000080fb00b02488009604e20059
:102fc40017003a0040002000d0878800200e21001e
:102fd40011c0b30090cf1000f1ff3a0000092100a6
:102fe40071878000900098000dff0700300e2100cb
:102ff40021c0b30090cf1000130032000804e00099
:103004000a00320081c8b300708780001140980024
:103014004f0478000080fa0000000600e4ff370047
:1030240000012000d0878800d9ff370081ccb3008d
:1030340070878000114098004f0478000080fa00e7
:1030440000000600daff370041c8b3007087800033
:10305400114098004f0478000080fa000000060038
:10306400d3ff37000000fa00010d210091407800e1
:1030740000c8b30080cf5000020032000080fa0084
:103084000000060000ccb30000f1b700d3d0bf00ad
:10309400e24f500012003200e34f5000250032008e
:1030a400e14f5000040032000071ef000080fa008c
:1030b40000000600f3ff3700a0142900fef0b7005b
:1030c4004800de00fff0b70020c1b30001f1b700f3
:1030d4000271ef000080fa0000000600e9ff3700eb
:1030e400d2d0bf000080fb0000004000a1092900ed
:1030f400010040009080fb008000fd00fef0b7005e
:103104008000fd00100078004800de00fff0b700ea
:103114004800dd00810070002140900001f1b700fb
:103124003140900002f1b7000080fa000000060070
:10313400d4ff3700d2d0bf00e24f5000daff3e0088
:10314400d2d0bf000080fb000000400041092900ec
:1031540060807800fef0b700c800de008000fd004b
:10316400fff0b7008000fd001080fb0001f1b70004
:103174000271ef000080fa0000000600c1ff370072
:103184000000fa0000f1a800ac24ef000000eb00fe
:1031940002202100820078008018eb008018eb00e8
:1031a4000000e800e80f5000fbff3a009424a80058
:1031b400ec70ef009424a90080202100708788001f
:1031c4005287880042878800d2d0bf00f9f0b70048
:1031d40004003a0000012000d08788000080fa0033
:1031e4000000060012002000910f210010002000b2
:1031f400b603070000022000d08788000080fa0090
:1032040000000600f7ff37000000fa009070ef009e
:103214009170ef00d0d0bf007f006000e10f50003c
:1032240015003200e20f5000150032000000e000eb
:103234000b0032000051e20007003d0000092100ac
:10324400fef0b7004800de00fff0b7000011a80050
:1032540020c0b30001f1b7000080fa0000000600ae
:1032640000f1a800e0878000e10f5000f1ff3a0070
:103274009030a800efff370000f1a800edff370001
:1032840000f1a800d450e2000b003d00d4d0bf00f0
:103294006f00600000004000e10e210060807800b3
:1032a400104090000028a300e2ff320010c0b300d9
:1032b40090f0b700dfff3700d4d0bf006f0060008c
:1032c40000004000410e210060807800f4ff3700c8
:1032d4000200fa00d2d0bf00e14f500028003200b3
:1032e400d250e20004003a00d0d0bf007f4060001a
:1032f400e24f5000020032000080fa000000060095
:10330400d4d0bf006f406000fbff320000f1a80082
:10331400d450e20023003d00d4d0bf006f00600011
:1033240000004000e10e2100608f7800d1d0bf0082
:10333400e34f50002b003200d4d0bf006f00600078
:1033440000004000a14a2000010040001014a10028
:10335400d450e20019003d008040eb001e007800cc
:10336400114098001e24a20001c4b3001e0078007e
:10337400114098000080fa0000000600e0ff3700ca
:10338400d0d0bf007f406000d5ff3a0000f1a80014
:10339400d1d0bf00e34f500018003200fc30ef00e2
:1033a400cfff3700d4d0bf006f00600000004000a2
:1033b400410e2100608f7800dcff370081c8b30024
:1033c4001e007800114098001e24a20081ccb30096
:1033d4001e007800114098000080fa0000000600ea
:1033e400c7ff370041c8b3001e00780011409800a1
:1033f4000080fa0000000600c1ff37001000200022
:10340400e0878800b6ff37000000fa00d0d0bf0084
:103414000046b20006003a00d1d0bf000080fb0095
:1034240001002000eb0f5000e08f5800020036002e
:103434000080fa0000000600006001000b00370065
:1034440043003700faff370041003700f8ff370028
:1034540039003700340037002c00370022003700d1
:103464001d0037000e0037000400370066ff070018
:103474000080fa0000000600efff370000f1a8000a
:10348400d4d0bf000080fb00c10e2100220d21001a
:1034940012f078000080fa0000000600e6ff370012
:1034a400d4d0bf000080fb00c10e21000100400009
:1034b400fef0b7004800de00fff0b7000011a800de
:1034c40010c0b30001f1b70000f1a8000080fa00b9
:1034d40000000600d8ff370029ff07000080fa002b
:1034e40000000600d4ff3700900f2100fef0b70063
:1034f4004800de00fff0b7000011a80010c0b300c0
:1035040001f1b70000f1a800f0ff37000001eb0063
:103514008000eb0020002000ec0207000080fa008d
:1035240000000600c4ff3700cefe07000080fa004a
:1035340000000600c0ff370000f1a8008000200052
:10354400d08788000080fa0000000600baff370028
:103554005fff07000080fa0000000600b6ff370096
:103564000000fa0071878000114090000004e00020
:1035740002003d000040eb0090409800e370ef0033
:10358400e270ef000171ef000271ef000071ef00d3
:103594009dff07000001eb008000eb0030002000dd
:1035a400ca0207000ffe07000080fa0000000600b0
:1035b4000000fa00ded0bf008080fb0081017800ab
:1035c4000320a1000300e0000e003a00c10fb20086
:1035d4000020210000814000528788004287880033
:1035e400e850aa0012409000c043b20041c3b300a7
:1035f400814f5000090032006ffd07000080fa007f
:1036040000000600e88f5100fcff3a0056fe070058
:103614000080fa0000000600faff37001200900054
:1036240004092100840f500004003200ccff07007d
:103634000080fa0000000600f2ff3700000d2100b0
:10364400100198008300780064f078008100e8009d
:10365400e88f5000f5ff320064f078008100e80044
:10366400e88f5000f8ff3a00f0ff37000000fa003e
:10367400889fbe00fa10e2000e003a009424ef0086
:103684008c24ef002000200030258800a824ef00bf
:103694008644a900f0092000802488006024880062
:1036a40094c4bf000008a3002300320010002000cf
:1036b400d0878800d0878000e10f500027003200b7
:1036c40080c4bf000048a3000300320082c4bf00ce
:1036d4000048a30081003a0088c4bf000018a3007a
:1036e40011003a008ac4bf000008a30066003a0033
:1036f4008ac4bf000048a30059003a008ac4bf002e
:103704000028a3004a003a008a44e2004100350040
:103714008ac4bf000018a30031003a00d08780009b
:10372400e30f500018003e008ec0a9004f04be00f5
:103734000080fa00000006009404a80094c4bf00ae
:103744000008a300d9ff3a009404a80094c4bf0061
:103754000008a300f8ff3200d4ff370094c4bf0070
:103764000068a300d6ff3a00f00f20005024880020
:103774008c24ef008c04a8008c84a8002000200076
:10378400d0878800ceff37008cc4bf000038a30068
:10379400e5ff32000044eb00890020008ac4bf002a
:1037a4000038a300e0ff320090248000def0b70070
:1037b40059248800000fb2004c003a007cff070037
:1037c4000844e800e44f5400f4ff3a008ec0a90016
:1037d4004f04be000080fa0000000600d6ff370048
:1037e4008cc4bf000018a300ccff320012002000dc
:1037f4008000eb00f0ff270034020700f00f2000e8
:1038040070248800d0878000e30f5000c6ff360084
:10381400ddff37008c44e200bdff3d0066fc07007d
:103824008ac4bf000018a300bcff3200ecff3700bd
:103834008cc4bf000028a300b3ff32001200200094
:103844008000eb0030072000200207004000200029
:10385400502488008a44e200adff3d00edff3700ac
:103864008cc4bf000048a300a4ff320048fc07003a
:1038740000012000502488008ac4bf000028a3004f
:10388400a1ff3200eaff37008cc4bf000008a30088
:1038940097ff3200fafb070040002000d087880021
:1038a400000d21001090880000c4b30000f2b7009e
:1038b40001d2bf006340600001f2b700c0c8b3008a
:1038c4000172b70010002000502488008ac4bf0091
:1038d4000048a30089ff3200e1ff37000001200007
:1038e4000024880020fc07007bff37000001eb0068
:1038f400e10d210020072000f40107000844e8003e
:10390400e44f5400a5ff3a00b0ff37000000fa006e
:103914000080fb00800140000180fb00008041002a
:103924004300dd000220210002014000124090000b
:103934000074a100104198000104e0000b003a005b
:10394400400e210082317800124090000064a100f2
:1039540010419800e4004100114090000064a00070
:10396400904098000080fa0000000600e00e21005c
:1039740082317800124090000064a1001041980048
:10398400e4004100114090000064a00090409800c1
:103994000080fa0000000600f4ff37000000fa007f
:1039a400889fbe00804478000080fb000000400037
:1039b400a24a2000017079000184fb000838a300aa
:1039c4000c003a000828a30003003a004f04be008c
:1039d4000080fa000000060011c0b300094078001e
:1039e400caff07004f04be000080fa000000060072
:1039f400f9ff37008040eb0009407800c3ff07005f
:103a04000828a300f1ff3200f3ff37000000fa009a
:103a1400014178000004e0000d003a0001c4b30045
:103a2400408780000148780041878000000d210014
:103a340090009800c0c8b3009040980041c8b300fb
:103a440070878000114098000080fa000000060092
:103a54008080fb00818040000280fb008080400069
:103a6400c308dd00022021000281400012409000c2
:103a740043c8b30003407000104198004020210067
:103a840080804000114090000340700090409800f6
:103a94000080fa0000000600edff37000000fa0085
:103aa400014378000104e000180032008082fb002a
:103ab40085804200e00e2100610278000400e000ed
:103ac4000f00320012029800034a7800144090005c
:103ad4000044b200104298001440900081c8b30022
:103ae40001407000104298000604e0000c003a0007
:103af40005804200410e2100010040001024a20074
:103b0400040078000080fa00000006008082fb00b8
:103b140085804200400e210061027800e7ff3700f3
:103b240005804200e10e2100010040001024a200a3
:103b3400040078000080fa0000000600f3ff37005c
:103b44000000fa008040780094c4bf000058a3002d
:103b5400180032000181fb0002014100e00e210047
:103b640000014100920178001300be00040420000b
:103b740000006200010020008089be0092017800ec
:103b8400000420000100200093196800939168004c
:103b94001224a20092007800114090000044b20068
:103ba4009040980092007800114090000440680012
:103bb400904098000080fa00000006000000fa001f
:103bc400a0882000a108210000d8eb00810f50003c
:103bd400fdff3a000080fa00000006000000fa0031
:103be4008448e20033003a003244800043448000b9
:103bf40000802a00800f5100e08f590061003200dc
:103c040000002700f1ff2f000200400083804800dd
:103c140004402100840f5000e08f58002f0036002c
:103c240000802a00800f5100e08f59003e003e00c2
:103c3400e00f5100e08f5900410032003144800010
:103c4400404480002204240086020700a588200046
:103c54000002eb001700240006802000324480009c
:103c640043448000930188001509bb00950090002f
:103c7400304480000188bb00640242000404e00078
:103c84001c00320030448000414480006200400047
:103c9400e08048003044880041448800e4824200c7
:103ca400860f5200edff3a00c4ff07000080fa00bf
:103cb40000000600324480004344800000002700d6
:103cc400f1ff2f00020040008380480004402100df
:103cd400840f5000e08f5800d1ff3e00e017290008
:103ce40054010700b5ff07000080fa000000060039
:103cf400f0ff3700073b880050052000303b880068
:103d0400a00a2000303b880061e7a8000000000002
:103d1400000000006147e200daff3d006147e20075
:103d2400fcff3500d7ff3700201a290041010700a6
:103d3400a2ff07000080fa0000000600ddff370044
:103d4400501c29003b010700000029005044880052
:103d540040002000604488008e28ef009028ef0087
:103d64003144800040448000220424003d020700c6
:103d7400a58820000002eb00170024000680200024
:103d8400b6ff3700c01529002a0107008bff070082
:103d94000080fa0000000600c6ff37000000fa00a9
:103da4000000eb00308888002088880010c0b30031
:103db40084e8b7008628ef008828ef007fff07001b
:103dc4000080fa00000006000400fa00889fbe008c
:103dd4008a9fbe008c9fbe006011b800d08780000f
:103de400ff0f50001a00360088c4bf000018a3005b
:103df40017003a00308880000000e0000300320021
:103e0400104090000004e0001100350050c5b300dc
:103e14004248e3002000320010c6b30042e8b70075
:103e2400208880000000e0000e0032001040900066
:103e34000004e0000b003d0003c4b3002284200012
:103e44008040eb0010c0b30014ff070030888800e6
:103e54004f06be004f05be004f04be000080fa00ae
:103e64000000060003c4b3002284200011c0b30084
:103e74000140780009ff07002088880003c4b300cc
:103e8400228420008040eb0010c0b30003ff070031
:103e940030888800eeff370011e1a90043c8bf0055
:103ea400e24f50005200320006003600e34f50004b
:103eb40057003200e44f5000d7ff3a0084e8b700bf
:103ec400d5ff3700e14f5000d3ff3a0044c8bf008c
:103ed4000080fb0001f02f0001016100000171006e
:103ee40045c8bf004800dd00f20fb20000017100b8
:103ef40046c8bf000080fb008181610080817100a1
:103f040047c8bf004800dd00f30fb2008081710094
:103f140048c8bf00004f78002e0032000205be00e2
:103f24000043eb003444800045448000ad88200009
:103f34002c84200000c02f00000065006104b8003c
:103f4400840f5400858f5c00060032001607980029
:103f540022ff07000802be00384488004944880054
:103f64001e0390000400550085805d0000004000a1
:103f74008180480000017800104488008680fb009e
:103f84006780400060407e0000f17e008201e8000e
:103f94006880400060407e0080f17e008281e800fd
:103fa4006980400060407e0080f17e006301410032
:103fb400ea804000e1407e0001f17e00644343005a
:103fc40062054500e0854d009e40780086cf500094
:103fd400d8ff3e003084200080c0eb0090cf10005a
:103fe4008dff320010c1b30043e8b7008aff3700e9
:103ff400fafe0700901f29008e00070000a026008b
:1040040081012000f60107000000fe0082ff370056
:10401400c0cfb30043e8b7007fff37000000fa00c9
:10402400b20107000080fa00000006000000fa0058
:104034000080fa00000006000000fa000080fa0088
:10404400000006000000fa000080fa0000000600ec
:104054000000fa00e90007000080fa0000000600f2
:104064000000fa000080fa00000006000000fa00d8
:10407400d1c1b30010c0b30048fe070003c4b300ad
:10408400228420008040eb0010c0b30083fe0700b0
:10409400308888000080fa00000006000000fa0062
:1040a4009444a80080702000004088008000eb0049
:1040b4008100e800808f5000fdff3a000028ef00e7
:1040c4009444a9000080fa00000006000000fa00f1
:1040d40080007800e30f5000110032000900360020
:1040e40020072000808f500017003200630040003a
:1040f400808f50000f003200100020000080fa0072
:1041040000000600e10f5000fbff3a00d7ff070054
:10411400100020000080fa0000000600f9ff3700bc
:10412400cbff0700100020000080fa00000006000a
:10413400f4ff3700b9ff0700100020000080fa00e8
:1041440000000600efff3700000000001000200010
:104154000080fa0000000600eaff37000000fa00c1
:104164000831ef000a31ef001e61a8001ec1bf0034
:10417400f1ccb300014060000044a0001ee1b70090
:104184000080eb00d0088800e00888009760a90050
:104194009780a9000000eb00a0088800c0088800f0
:1041a4001fe1a8000080fa00000006000000fa00e9
:1041b400c008800001002000c000dd0000002000d5
:1041c400a2088000030020000200700083807000b9
:1041d4000080fa00000006000000fa000000eb0076
:1041e40000118800101188000080fa000000060009
:1041f4000000fa00d9ff0700f7ff07008000200045
:104204004011880000002800001188002342a80003
:104214000080fa00000006000000fa002322ab0030
:10422400feff3a000080fb00201188000080fa00a5
:10423400000006000000fa008000780010407800ba
:104244000004e00007003a000080fa0000000600c5
:104254000000fb0020118800514078000004e000b9
:10426400f9ff32002322ab00f9ff32002322ab0016
:10427400fcff3a00f6ff37000400fa0080407800a3
:104284000040eb00204798000181fb006f006100b3
:10429400e90f500016003c006fc060000043b000fe
:1042a40010479800c410de006f806000e90f5000d2
:1042b40007003c0002c3b30002c04000004f780076
:1042c4000e007800dbff07000080fa000000060003
:1042d40072c3b30002c04000004f78000e007800a3
:1042e400d4ff07000080fa0000000600f8ff370042
:1042f4006fc060007043b000e9ff37000600fa00a9
:10430400800078000040eb00404798006f80600018
:10431400e90f500022003e000043b00030479800ef
:104324004408de006f006000e90f50001a003e00f0
:104334000043b000204798004808de006f0060008a
:10434400e90f500012003e000043b00010479800ef
:104354004c08de00e90f500006003e000043b000a8
:10436400004f78000e007800b2ff07000080fa00ca
:10437400000006007043b000004f78000e00780083
:10438400acff07000080fa0000000600f9ff3700c8
:104394007043b000edff37007043b000e5ff370015
:1043a4007043b000ddff37000000fa00889fbe00b4
:1043b4008a1f7800000578007cff07000004be0017
:1043c400e02b29009bff07004048de00010020008d
:1043d400caff070008007800c8ff0700202c290046
:1043e40094ff07000a00780092ff07004f05780049
:0c43f4004f04be000080fa00000006002c
:020000040000fa
:020000040001f9
:102588000000fa00889fbe008a9fbe002ca3ef00bf
:1025980068a0a8006880a80030002000c822b70002
:1025a80050168000630060005100320018002000bf
:1025b800e30f50004e00320068a0a9006880a9000f
:1025c800c2c6bf0001ceb300014060003040b30076
:1025d800c2e6b700050707006020290014070700b6
:1025e80020c0b30023070700e0c2b30009070700b3
:1025f80040c1b3001f070700e0c2b300050707008a
:1026080030c0b3001b070700002329000807070094
:1026180044a7a800802520000000e900e10f400041
:10262800fdff3a0030232900010707000800e000f9
:1026380049003a00c2ff2800030020008200780009
:1026480003007800f10707000005be00e2ff28003c
:10265800030020008200780003007800eb070700e1
:102668000004be0040242900f10607000b00780092
:10267800210707000a0078001f070700d024290057
:10268800eb060700090078001b0707000800780020
:102698001907070000232900e5060700f0ff2f00af
:1026a800f10f2000800f5400818f5c0002003a0077
:1026b80008002900090020006150b800e2aa2b0098
:1026c800820f5000e08f58002a003200e0262900cf
:1026d800d7060700b005070068000700e2030700f7
:1026e800b8050700e0030700b6050700fbff370041
:1026f8000004eb0068a0a9006880a900c2c6bf005a
:1027080001ceb300014060003040b300c2e6b7001c
:10271800b606070060202900c506070020c0b300e0
:10272800d4060700e0c2b300ba06070040c1b300f0
:10273800d0060700e0c2b300b606070030c0b300f9
:10274800cc06070000232900b906070044a7a80003
:1027580080252000b0ff3700a0252900b406070017
:10276800e0262900b20607008b0507004300070092
:10277800daff3700003a800063006000d3ff3200c0
:1027880008007800a8070700e0262900a806070027
:0c2798008105070039000700d0ff370062
:020000040000fa
:020000040001f9
:104400000000fa00d0d0bf007f406000e14f5000b4
:10441000020032000080fa0000000600410d210079
:10442000914078000104e000faff3a00d1d0bf00cb
:10443000e64f500014003200d0d0bf000046b2005a
:1044400001c2b300814f5000f2ff3a00d1d0bf004b
:10445000e34f50003500320026003600ea4f50008e
:1044600052003200eb4f5000eaff3a0000c8b300a0
:1044700000f1b700d2d0bf000cf1b7000080fa0005
:1044800000000600e5ff3700320d210012417800e0
:104490007b404000804f5100300032000040e80077
:1044a000804f5100e4ff3a00900f210011c0b3008b
:1044b00090cf1000e0ff3a00c0092900fef0b700dd
:1044c0004800de00fff0b700e0c2b30001f1b70022
:1044d0000271ef0000ccb30000f1b700d0d0bf00f4
:1044e0000046b20001c2b300814f5000c9ff3a003c
:1044f000d6ff3700e24f5000c6ff3a00d01021002f
:10450000fef0b7004800de00fff0b70010c0b300b7
:1045100001f1b7000271ef0010ccb30000f1b70059
:104520000080fa0000000600bcff3700c010210028
:10453000fef0b7004800de00fff0b70010c0b30087
:1045400001f1b7000271ef0010c8b30000f1b7002d
:104550000080fa0000000600b0ff3700900f210035
:1045600012c0b300904f1100b3ff3a00201329008e
:10457000fef0b7004800de00fff0b70090c0b300c7
:1045800001f1b7000100780002f1b70000ccb300e0
:1045900000f1b700d0d0bf000046b20001c2b300a6
:1045a000814f50009bff3a00a8ff370000c8b300be
:1045b00000f1b700d3d0bf000df1b7000080fa00c2
:1045c0000000060095ff37000000fa00003b88005d
:1045d00050052000303b8800a00a2000303b8800b6
:1045e00061e7a80000000000000000006147e20051
:1045f000feff35000080fa00000006000000fa000f
:10460000900188008308bb008288bb000080fa000c
:10461000000006000000fa00900188001101ba00b5
:104620009181ba000200be000080fa00000006007e
:104630000000fa00881f780000047800c02a2900d2
:10464000fdfe0700c2c6bf0001ceb30001406000fe
:10465000c2e6b700e1fe0700084001004f04780001
:104660000080fa00000006000000fa00889fbe00eb
:104670008a1f780080047800010478000205780021
:10468000502b2900ecfe0700090078001cff0700f2
:10469000802b2900e8fe07000800780018ff0700bb
:1046a000a02b2900e4fe07009101800099018800f9
:1046b0000a3b8800080cbb0050052000303b8800f6
:1046c000a00a2000303b880061e7a800000000003d
:1046d000000000006147e200feff35009101880004
:1046e0004f0578004f04be000080fa00000006006d
:1046f0000000fa00872480006624800015248000d2
:104700009ec0bf004600de006102600042c0bf00e4
:1047100001ceb300014060008000eb002e003200ab
:104720009024ef008c24ef008224ef00cfc0bf0064
:1047300083cfb300034060000004a000cfe0b700c7
:104740008ec0a9008284a8000001200000248800f7
:104750009ec0a80011242000914078008180fb00b9
:10476000c708de0012262000124178000281fb00fb
:104770004711de0041e2a90061e2a9000040fe000d
:10478000c708dd0041c2bf000074a10001407000f5
:1047900041e2b7004711dd0061c2bf000074a10013
:1047a0000240700061e2b700cfc0bf00034060006c
:1047b000cfe0b700c620dd009ec0bf000064a100ae
:1047c000014070009ee0b7008724880066248800be
:1047d0001524880011002000010078000080fa00f4
:0447e00000000600cf
:020000040000fa
:020000040001f9
:1027a400041100000400000002000000000000000a
:1027b40000000000000800008a080000000000007b
:1027c4008a1000007a0000000000000000120000df
:1027d40020000000000000000c11000002000000b6
:1027e40000000000081100000400000000000000c8
:0427f40000000000e1
:020000040000fa
:020000040001f9
:1047e400f03fb1000180b10006003500ee0309007e
:1047f40000000000403fb1000180b100fbff3d001c
:104804001000b000203fb000020035000080090015
:08481400000000000000060096
:020000040000fa
:020000040001f9
:0827f8000040da000000fe00c1
:00000001FF
